:1000000029EF01F08B80100E006E002EFED700004D
:100010008B9038EF01F08E0E006E08C001F007C023
:1000200002F0036A015209E102C001F0026A080EFF
:10003000005E015202E1006A08D0D89001BE04D0EF
:10004000023601360006F9D7019EC2EF00F00750D4
:10005000D8B471D0006E0B50D8B46DD0002604E334
:10006000810E002668E204D07F0E005E64E363E048
:1000700008C00FF00C500F1A088E0C8E0A500E029A
:10008000F4CF11F009500D02F4CF03F0F3CF10F0CC
:100090000E02F3501126F4501022000E03220A50D3
:1000A0000D02F3501126F4501022000E026A0322B2
:1000B000022208500E02F3501026F4500322000EC4
:1000C000022208500D02F3500326F4500222000EC3
:1000D000016A01220A500C02F3501026F450032248
:1000E000000E0222012209500C02F3500326F450A4
:1000F0000222000E012208500C02F3500226F45096
:100100000122002A01BE05D0103603360236013620
:100110000006000E10AE0AD0032A0222012201506E
:1001200005E1025003E1035001E1002A0FBE018EF8
:100130000FAE019E04D0006A016A026A036AD3EF1F
:1001400000F08E0E006E0750005E08C002F009C07D
:1001500001F0028E005209E0D890025202E10152F1
:1001600004E002320132002EF7D708AE05D0011E9E
:10017000021E012AD8B4022ADCEF00F0086A06C089
:1001800007F049D703C00AF002C009F001C008F027
:1001900000C007F0960E0E6E430E0D6E0B0E0C6E29
:1001A0007A0E0B6E54D703C00AF002C009F001C0EA
:1001B00008F000C007F0C5D7015045EF01F00B5023
:1001C000016A0A5C03E20AC000F00CD0006A080E63
:1001D0000C6E0A3600360B50005CD8B0006E01364B
:1001E0000C2EF7D71200076A0450090803E306C073
:1001F00007F017D006C008F008C00AF00A0E0B6E10
:10020000DEDF00C008F006C009F009C00AF00A0EDF
:100210000B6ED5DF01C009F00950100DF350082412
:10022000076E07C001F04AEF01F0EA6A060EE96EB8
:10023000EF500DE0060E016E006A002EFED7012E73
:10024000FBD77B0E006E002EFED7EF2EF3D750EFBC
:1002500001F0F86AD09E0080C180C182C184C1963D
:10026000070EB46ED26A020E946E046A056ACAD68C
:1002700082A2FED782A206D0010E052600D000D0B1
:100280000000F8D705C006F079D701C004F004C01B
:1002900006F0A9D7936A01C08AFF640E066EC5D71F
:0402A000E4D703009C
:020000040030CA
:0E00000000220C0E000081000FC00FE00F4028
:00000001FF
;PIC18F458
;CRC=C5C3  CREATED="07-mars-20 14:51"
