:100000002AEF00F00950016A085C03E208C000F022
:100010000CD0006A080E0A6E083600360950005CE3
:10002000D8B0006E01360A2EF7D71200EA6A090E20
:10003000E96EEF500DE0060E016E006A002EFED74D
:10004000012EFBD77B0E006E002EFED7EF2EF3D7CE
:100050005DEF00F0F86AD09E0080C180C182C1844B
:10006000C196070EB46ED26A046A056A0450090884
:1000700003E304C005F017D004C006F006C008F082
:100080000A0E096EBFDF00C006F004C007F007C00B
:1000900008F00A0E096EB6DF01C007F00750100D18
:1000A000F3500624056E936A05C08AFF96928D82EE
:1000B000020E086EFA0E096EB9D7082EFBD796927B
:0800C0008D92042AD3D703003E
:020000040030CA
:0E00000000220C0E000081000FC00FE00F4028
:00000001FF
;PIC18F458
;CRC=FB15  CREATED="03-mars-20 18:56"
