:100000004CEF00F00A50016A095C03E209C000F0FD
:100010000CD0006A080E0B6E093600360A50005CE0
:10002000D8B0006E01360B2EF7D71200066A0450C6
:10003000090803E305C006F017D005C007F007C0A4
:1000400009F00A0E0A6EDEDF00C007F005C008F0F6
:1000500008C009F00A0E0A6ED5DF01C008F008508A
:10006000100DF3500724066E06C001F05AEF00F0A1
:10007000EA6A060EE96EEF500DE0060E016E006AA8
:10008000002EFED7012EFBD77B0E006E002EFED772
:10009000EF2EF3D764EF00F0F86AD09E0080C180A5
:1000A000C182C184C196070EB46ED26A046A04C0CC
:1000B00005F0BCD7936A01C08AFF96928D82020E2A
:1000C000056EFA0E066ED4D7052EFBD796928D924A
:0600D000042AEDD7030035
:020000040030CA
:0E00000000220C0E000081000FC00FE00F4028
:00000001FF
;PIC18F458
;CRC=B5AB  CREATED="05-mars-20 14:47"
