:1000000064EF01F08B80100E006E002EFED7000012
:100010008B9077EF01F08E0E006E0FC001F00EC0D6
:1000200002F0036A015209E102C001F0026A080EFF
:10003000005E015202E1006A08D0D89001BE04D0EF
:10004000023601360006F9D7019E12008E0E006EB0
:100050000D50005E0EC002F00FC001F0028E005283
:1000600009E0D890025202E1015204E0023201326A
:10007000002EF7D70EAE05D0011E021E012AD8B4FD
:10008000022A12000E50D8B4A5D01A6E1250D8B45D
:10009000A1D01A5E05E37F0E1A26D8B09BD006D0F9
:1000A000810E1A5ED8A096D0D8B494D01AC000F0B1
:1000B000016A026A036A196A0FC018F0188E10C02C
:1000C00017F011C016F0190E1A6E1550165E0DE2DB
:1000D000010E175E0AE2185E08E2195E06E2192AAE
:1000E000182A172A1550162628D01450175E12E227
:1000F000010E185E0FE2195E0DE2192A182A14503B
:1001000017261550162619E3172A17E1182A15E1A4
:10011000192A13D013508009185E0EE2010E195EE1
:100120000BE2192A13508009182614501726E9E308
:10013000182AE7E1192AE5D703801A2E01D00BD03F
:10014000D8901636173618361936D8900336023638
:1001500001361B36BAD71BA006D0D8900132023226
:1001600003321B3202D0000635E01BBE1ED0D890F1
:1001700016361736183619361550165E07E2010E78
:10018000175E04E2185E02E2195E1AE31450175E6D
:1001900005E2010E185E02E2195E12E313508009B7
:1001A000185E03E2010E195E0BE3032A09E1022A3D
:1001B00007E1012A05E1002A0DE001320232033293
:1001C0000FC01AF013501A1A1AAE02D0018E06D0C0
:1001D000019E04D0006A016A026A036A0EEF01F010
:1001E0000CC010F00BC00FF00AC00EF009C00DF0EB
:1001F0002DDF0F6A01C00EF00EDF03C011F002C048
:1002000010F001C00FF000C00EF0AE0E156E470EDC
:10021000146E6B0E136E840E126E34D703C010F082
:1002200002C00FF001C00EF000C00DF00FDF015052
:1002300095EF01F00E50016A0D5C03E20DC000F075
:100240000CD0006A080E0F6E0D3600360E50005CA2
:10025000D8B0006E01360F2EF7D712000A6A095087
:10026000090803E309C00AF017D009C00BF00BC05E
:100270000DF00A0E0E6EDEDF00C00BF009C00CF0B0
:100280000CC00DF00A0E0E6ED5DF01C00CF00C5044
:10029000100DF3500B240A6E0AC001F0A9EF01F013
:1002A000EA6A0A0EE96EEF500DE0060E016E006A72
:1002B000002EFED7012EFBD77B0E006E002EFED740
:1002C000EF2EF3D7B1EF01F0F86AD09E0080C18025
:1002D000C182C184C196070EB46ED26A020E946EBA
:1002E000850ECD6E076A066A056A046A8BD682A2FD
:1002F000FED7CF6ACE6A82B2FED7CE50CFCF03F000
:100300000E6ECFCF0FF087DE03C007F002C006F0FD
:1003100001C005F000C004F007C00CF006C00BF0EF
:1003200005C00AF004C009F05BD701C008F008500E
:1003300063080AE208C00DF00A0E0E6E7BDF01C0F2
:1003400008F096948D8402D096948D9408C009F09C
:1003500085D7936A01C08AFF020E096EC80E0A6E25
:0A0360009FD7092EFBD7BED703007C
:020000040030CA
:0E00000000220C0E000081000FC00FE00F4028
:00000001FF
;PIC18F458
;CRC=3ACB  CREATED="03-avr.-20 09:06"
