:04000000E5EF02F036
:08000800046ED8CF05F0E0CF33
:1000100006F00001E9CF0CF0EACF07F0E1CF08F0DD
:10002000E2CF09F0D9CF0AF0DACF0BF0F3CF12F01C
:10003000F4CF13F0FACF14F0F5CF15F0F6CF16F099
:10004000F7CF17F000C00EF001C00FF002C010F0A3
:1000500003C011F09DAA30EF00F09EBA61EF00F0EE
:100060000EC000F00FC001F010C002F011C003F08C
:100070000CC0E9FF07C0EAFF078E08C0E1FF09C016
:10008000E2FF0AC0D9FF0BC0DAFF12C0F3FF13C0B2
:10009000F4FF14C0FAFF15C0F5FF16C0F6FF17C035
:1000A000F7FF045006C0E0FF05C0D8FF1000F76A54
:1000B000BE0FF66E000EF7220900F5501200280C54
:1000C0000106036A2950250FE96E000E0320EA6E2F
:1000D0009EAAFED7AECFEFFF2550210808E124B03D
:1000E00006D0292A2950030802E2296A24809E9A10
:1000F00030EF00F02050726F6A657420456C6563C4
:1001000074726F6E69717565200020323032302054
:1001100047726F75706520332000204D696E5661FF
:100120006C3A20002044697374616E63653A200064
:10013000EA6A360EE96EEF500DE0060E016E006AB7
:10014000002EFED7012EFBD77B0E006E002EFED7B1
:10015000EF2EF3D712003C500F0B006EF00E8314FD
:100160000010836E0000838C030E006E002EFED7FD
:10017000839C12000F0E956E838A0000838C000012
:1001800083500F0B3C6E839C0000838C00D000D00A
:10019000000083500F0B3B6E839C000E956E3C3825
:1001A000006EF00E001600503B10016EDAEF00F00A
:1001B0008398E0D701C03BF001BEFBD739A08398FC
:1001C00039B083880000839A0000839C3A383B6EE4
:1001D0000F0E3B163BC03CF0BEDF3A500F0B3B6EA0
:1001E0003C6EB9DF1200000E956E8398839A839C53
:1001F0000F0E366E9DDF010E2F6E2F50030808E3A1
:10020000030E3C6EA8DF050E366E92DF2F2AF5D75F
:10021000020E3C6EA0DF2F6A2F50030809E3036A29
:100220002F5045DF306E396A3A6EC2DF2F2AF4D77D
:1002300013EF03F0010E375CFC0F0EE2040F34EFF6
:1002400001F0800E386E08D0C00E386E05D0940EC6
:10025000386E02D0D40E386E010E365C3826396AFC
:1002600038C03AF0A5DF1200E824F76AF736830FAA
:10027000F66E020EF7220A00F550FA6E0800F550ED
:10028000F96E420248024E02540235500C0A05E053
:10029000060A0DE0020A12E016D0396A010E3A6E23
:1002A00087DF010E196E020E366E42DF11D0192A59
:1002B000010E366E19C037F0BDDF0AD0396A100E54
:1002C0003A6E76DF05D0010E396E35C03AF070DF38
:1002D00012000900F5520CE0F6CF2FF0F7CF30F006
:1002E000F5CF35F0D2DF2FC0F6FF30C0F7FFF1D7E2
:1002F0001200020E2F6EFA0E366E1ADF2F2EFBD76B
:100300000C0E356EC2DF010E366E376E93DFF40EC3
:10031000F66E000EF76EDDDF010E366E030E376EE1
:1003200089DF0A0EF66E010EF76ED3DF040E2F6E14
:10033000FA0E366EFDDE2F2EFBD70C0E356EA5DFC6
:1003400014EF03F08B80100E006E002EFED700001D
:100350008B901AEF03F0016A026A006A036A355053
:1003600002E1345018E0100E366ED8903236333633
:10037000003603363550035C02E13450005C07E37D
:100380003450005ED8A003063550035ED880013695
:100390000236362EEAD71200EACF37F0E9CF36F030
:1003A00030AE08D0368E36A8362A2F1E301E2F2AA1
:1003B000D8B4302A3038F009326E3226E20F336E6C
:1003C000320F356E30500F0B332633263526E90FAA
:1003D000346E342634262F380F0B34263526343627
:1003E0003536351E35362F500F0B35263236070E73
:1003F000316E0A0E34063526FDE333063426FDE35E
:1004000032063326FDE331063226FDE3EA6A310E79
:10041000E96E070E3614369CED52361407E136B8F5
:10042000EE5236B803D0200E006E20D0E926000E22
:10043000EA22E950350803E1EA5201E1368CEF5037
:10044000006E08E136BC06D036B814D036B602D0FD
:10045000200E0BD036AE06D02D0E006EED50369C21
:10046000369E04D036863698300E002600509EA860
:10047000FED7AD6EEE5036ACDCD73CEF03F0365015
:10048000016A355C03E235C000F00CD0006A080E4A
:10049000376E353600363650005CD8B0006E013607
:1004A000372EF7D71200200E30A8300E316E2FC035
:1004B00000F02FAE08D0001E002A00C02FF02D0E35
:1004C000316E308E308001502FC035F0640E366EA4
:1004D000D6DF00C02FF0300E0124326E2FC035F071
:1004E0000A0E366ECCDF300E0024346E300E01243E
:1004F000336E31C000F0300E325C04E0308230BE2A
:10050000308412D031C032F0200E316E300E335CA8
:1005100004E0308030BE308207D0D8A4308004E1BF
:1005200032C033F0200E326E30B405D030B206D077
:1005300030B007D009D031C035F0A7DE32C035F079
:10054000A4DE33C035F0A1DE34C035F09EDE1200EB
:10055000316A305206E12F50090803E32FC031F011
:100560002FD030C01FF02FC01EF01FC033F01EC0B0
:1005700032F0356A0A0E346EEEDE00C01EF003C0A3
:100580001FF030C021F02FC020F021C033F020C078
:1005900032F0356A0A0E346EDEDE02C021F001C090
:1005A00020F02034026E2134036E02360336023608
:1005B000033602360336F00E021602501E24316E48
:1005C00031C001F0026A11EF04F0F86AD09E078E84
:1005D0000080810EAF6EA60EAC6E900EAB6E2490B6
:1005E000296A2E6A2D6AC180C182C184C196070E14
:1005F000B46ED26A420E946EC66AD190850ECD6EEC
:10060000070EB46E9550956E9650966E100E006E55
:10061000002EFED70000B450A19CB56A9D8AC00E82
:10062000F212D36AE0D565D61B6A1A6A236A640E91
:10063000226E88D682A2FED7CF6ACE6A82B2FED759
:10064000CE501A6ECFCF1BF01BC033F01AC032F061
:10065000010E356E1D0E346E7EDE02C01DF001C02F
:100660001CF0200E9EA8FED7AD6E100EE96E1DC0C8
:1006700030F01CC02FF090D60A0E9EA8FED7AD6EAB
:1006800024A015D02490300E265C2A6E300E275CF4
:100690002B6E300E285C2C6E2A50640DF3CF2FF099
:1006A0002B500A0DF3502F242C24236A226E23C0D2
:1006B00033F022C032F0356A640E346E4CDE01C075
:1006C0002AF02A50640DF350225C2F6E000E23583E
:1006D000306E336E2FC032F0356A0A0E346E3BDE58
:1006E00001C02BF02A50640DF350225C2F6E000ED7
:1006F00023582B500A0DF3502F5C2C6E030E366ED0
:10070000010E376E97DD1A0EF66E010EF76EE1DD03
:100710002AC02FF0180E306EC6DE2BC02FF0180E38
:10072000306EC1DE2CC02FF0180E306EBCDE1DC046
:1007300033F01CC032F0356A640E346E0CDE01C03A
:100740002AF02A50640DF3501C5C2F6E000E1D58C9
:10075000306E336E2FC032F0356A0A0E346EFBDD18
:1007600001C02BF02A50640DF3501C5C2F6E000E5C
:100770001D582B500A0DF3502F5C2C6E030E366E55
:10078000376E58DD240EF66E010EF76EA2DD2AC01C
:100790002FF0180E306E87DE2BC02FF0180E306E43
:1007A00082DE2CC02FF0180E306E7DDE1D50235CD3
:1007B00011E303E122501C5C0DE2310E9EA8FED72E
:1007C000AD6E0A0E9EA8FED7AD6E96928D82969063
:1007D0008D900CD0320E9EA8FED7AD6E0A0E9EA84C
:1007E000FED7AD6E96908D8096928D921D5203E14C
:1007F0001C5063080FE21DC033F01CC032F0356A94
:100800000A0E346EA8DD02C01DF001C01CF09694E3
:100810008D8402D096948D941DC030F01CC02FF0B2
:1008200097D6936A01C08AFF020E2F6EFA0E366EBB
:0A0830007FDC2F2EFBD7F8D6030063
:020000040030CA
:0E00000000220C0E000081000FC00FE00F4028
:00000001FF
;PIC18F458
;CRC=7F0C  CREATED="03-mai-20 15:17"
