:04000000F2EF02F029
:08000800046ED8CF05F0E0CF33
:1000100006F00001E9CF0CF0EACF07F0E1CF08F0DD
:10002000E2CF09F0D9CF0AF0DACF0BF0F3CF12F01C
:10003000F4CF13F0FACF14F000C00EF001C00FF0AF
:1000400002C010F003C011F09DAA2AEF00F09EBA82
:100050005AEF00F00EC000F00FC001F010C002F027
:1000600011C003F00CC0E9FF07C0EAFF078E08C00B
:10007000E1FF09C0E2FF0AC0D9FF0BC0DAFF12C0DE
:10008000F3FF13C0F4FF14C0FAFF045006C0E0FFF2
:1000900005C0D8FF1000F2CF0DF0F29EF76AB00F46
:1000A000F66E000EF7220900F5500DBEF28E12001A
:1000B000280C0106036A2650220FE96E000E032069
:1000C000EA6E9EAAFED7AECFEFFF2250210808E1CC
:1000D00021B006D0262A2650030802E2266A218093
:1000E0009E9A2AEF00F050726F6A657420456C6525
:1000F0006374726F6E697175652032303230200022
:1001000047726F757065203200006C696D697465A7
:100110003A200000EA6A310EE96EEF500DE0060E5B
:10012000016E006A002EFED7012EFBD77B0E006EFB
:10013000002EFED7EF2EF3D7120037500F0B006EB4
:10014000F00E83140010836E0000838C020E006E8C
:10015000002EFED700D00000839C12000F0E956E7B
:10016000838A0000838C000083500F0B376E839CC2
:100170000000838C00D000D0000083500F0B366E3F
:10018000839C000E956E3738006EF00E00160050FE
:100190003610016ECEEF00F08398E0D701C036F044
:1001A00001BEFBD734A0839834B083880000839AC3
:1001B0000000839C3538366E0F0E361636C037F089
:1001C000BCDF35500F0B366E376EB7DF1200000EF6
:1001D000956E8398839A839C0F0E316E9BDF010E80
:1001E0002A6E2A50030808E3030E376EA6DF050EB9
:1001F000316E90DF2A2AF5D7020E376E9EDF2A6A0B
:100200002A5003080EE3036A2A50F2CF2BF0F29E25
:1002100042DF2BBEF28E2B6E346A356EBDDF2A2A8A
:10022000EFD71EEF03F0010E325CFC0F0EE2040F5D
:100230002DEF01F0800E336E08D0C00E336E05D066
:10024000940E336E02D0D40E336E010E315C332621
:10025000346A33C035F0A0DF1200F2CF0DF0F29E09
:10026000E824F76AF7367F0FF66E020EF7220A00CF
:10027000F550FA6E0800F5500DBEF28EF96E34029C
:100280003A024002460230500C0A05E0060A0DE030
:10029000020A12E016D0346A010E356E7DDF010EBF
:1002A000166E020E316E36DF11D0162A010E316E37
:1002B00016C032F0B8DF0AD0346A100E356E6CDF2B
:1002C00005D0010E346E30C035F066DF1200090033
:1002D000F5520CE0F6CF2AF0F7CF2BF0F5CF30F047
:1002E000D2DF2AC0F6FF2BC0F7FFF1D71200020EB3
:1002F0002A6EFA0E316E0EDF2A2EFBD70C0E306EF0
:10030000C2DF010E316E326E8EDFE60EF66E000E2B
:10031000F76EDDDF040E2A6EFA0E316EFBDE2A2E3A
:10032000FBD7000EF66E010EF76ED1DF040E2A6EBB
:10033000FA0E316EEFDE2A2EFBD70C0E306EA3DFE5
:100340001FEF03F08B80100E006E002EFED7000012
:100350008B9025EF03F0016A026A006A036A30504D
:1003600002E12F5018E0100E316ED8902D362E3647
:10037000003603363050035C02E12F50005C07E387
:100380002F50005ED8A003063050035ED88001369F
:100390000236312EEAD712002BC02EF02AC02DF0E3
:1003A000010E306E1E0E2F6ED6DF02C003F002C0AB
:1003B00002F034EF03F0EACF32F0E9CF31F02BAEA8
:1003C00008D0318E31A8312A2A1E2B1E2A2AD8B4F1
:1003D0002B2A2B38F0092D6E2D26E20F2E6E320FB0
:1003E000306E2B500F0B2E262E263026E90F2F6E47
:1003F0002F262F262A380F0B2F2630262F36303661
:10040000301E30362A500F0B30262D36070E2C6E3C
:100410000A0E2F063026FDE32E062F26FDE32D06BD
:100420002E26FDE32C062D26FDE3EA6A2C0EE96E4E
:10043000070E3114319CE906311407E131B8E92A7D
:1004400031B803D0200E006E1CD0E926300EE95CD6
:10045000D8B4318CEF50006E08E131BC06D031B811
:1004600014D031B602D0200E0BD031AE06D02D0EF6
:10047000006EED50319C319E04D031863198300EA3
:10048000002600509EA8FED7AD6EEE5031ACDED7F0
:100490003FEF03F03150016A305C03E230C000F0FE
:1004A0000CD0006A080E326E303600363150005CD7
:1004B000D8B0006E0136322EF7D71200200E2BA8CE
:1004C000300E2C6E2AC000F02AAE08D0001E002A82
:1004D00000C02AF02D0E2C6E2B8E2B8001502AC0CE
:1004E00030F0640E316ED6DF00C02AF0300E0124E9
:1004F0002D6E2AC030F00A0E316ECCDF300E002493
:100500002F6E300E01242E6E2CC000F0300E2D5CAC
:1005100004E02B822BBE2B8412D02CC02DF0200E99
:100520002C6E300E2E5C04E02B802BBE2B8207D06D
:10053000D8A42B8004E12DC02EF0200E2D6E2BB4FC
:1005400005D02BB206D02BB007D009D02CC030F08C
:100550009ADE2DC030F097DE2EC030F094DE2FC032
:1005600030F091DE12002C6A2B5206E12A50090865
:1005700003E32AC02CF02FD02BC01CF02AC01BF0A4
:100580001CC02EF01BC02DF0306A0A0E2F6EE3DE69
:1005900000C01BF003C01CF02BC01EF02AC01DF0D1
:1005A0001EC02EF01DC02DF0306A0A0E2F6ED3DE55
:1005B00002C01EF001C01DF01D34026E1E34036E19
:1005C000023603360236033602360336F00E0216C2
:1005D00002501B242C6E036A2CC001F003C002F0F1
:1005E000D4EF03F0F86AD09E078E0080810EAF6EC4
:1005F000A60EAC6E900EAB6E2190266AC180C182B1
:10060000C184C196070EB46ED26A420E946EC66A59
:10061000D190850ECD6E070EB46E9550956E9650A6
:10062000966E100E006E002EFED70000B450A19CF6
:10063000B56A9D8AC00EF212D36AC9D558D6186A17
:10064000176A206A640E1F6E7DD682A2FED7CF6A1B
:10065000CE6A82B2FED7CE50176ECFCF18F018C038
:100660002BF017C02AF098D602C01AF001C019F07A
:10067000100EE96E1AC02BF019C02AF09CD60A0E93
:100680009EA8FED7AD6E21A015D02190300E235C20
:10069000276E300E245C286E300E255C296E2750A4
:1006A000640DF3CF2AF028500A0DF3502A24292490
:1006B000206A1F6E1AC02EF019C02DF0306A640E29
:1006C0002F6E49DE01C027F02750640DF350195CEE
:1006D0002A6E000E1A582B6E2E6E2AC02DF0306A2C
:1006E0000A0E2F6E38DE01C028F02750640DF3503B
:1006F000195C2A6E000E1A5828500A0DF3502A5C15
:10070000296E010E316E326E8EDD0A0EF66E010E0E
:10071000F76EDDDD27C02AF0180E2B6ECFDE28C065
:100720002AF0180E2B6ECADE29C02AF0180E2B6E86
:10073000C5DE1A50205C11E303E11F50195C0DE285
:10074000310E9EA8FED7AD6E0A0E9EA8FED7AD6EE6
:1007500096928D8296908D900CD0320E9EA8FED7E8
:10076000AD6E0A0E9EA8FED7AD6E96908D809692C5
:100770008D921A5203E1195063080FE21AC02EF04D
:1007800019C02DF0306A0A0E2F6EE5DD02C01AF096
:1007900001C019F096948D8402D096948D941AC05D
:1007A0002BF019C02AF0DFD6936A01C08AFF020E2F
:1007B0002A6EFA0E316EAEDC2A2EFBD740D703002C
:020000040030CA
:0E00000000220C0E000081000FC00FE00F4028
:00000001FF
;PIC18F458
;CRC=8DF8  CREATED="27-avr.-20 15:14"
