:04000000FDEF02F01E
:08000800046ED8CF05F0E0CF33
:1000100006F00001E9CF0CF0EACF07F0E1CF08F0DD
:10002000E2CF09F0D9CF0AF0DACF0BF0F3CF12F01C
:10003000F4CF13F0FACF14F000C00EF001C00FF0AF
:1000400002C010F003C011F09DAA2AEF00F09EBA82
:1000500066EF00F00EC000F00FC001F010C002F01B
:1000600011C003F00CC0E9FF07C0EAFF078E08C00B
:10007000E1FF09C0E2FF0AC0D9FF0BC0DAFF12C0DE
:10008000F3FF13C0F4FF14C0FAFF045006C0E0FFF2
:1000900005C0D8FF1000F2CF0DF0F29EF76AB00F46
:1000A000F66E000EF7220900F5500DBEF28E12001A
:1000B000280C01069EAAFED7ABCF17F0AECF01F0F9
:1000C00017A202D0AB98AB8872EF00F0036A2750FA
:1000D000230FE96E000E0320EA6EEACF3DF0E9CF70
:1000E0003CF0E8D73DC0EAFF3CC0E9FF01C0EFFFAC
:1000F0002350210808E122B006D0272A2750030800
:1001000002E2276A22809E9A2AEF00F02050726F46
:100110006A657420456C656374726F6E697175658C
:10012000200020323032302047726F7570652033E6
:100130002000204D696E56616C3A2000204469739E
:1001400074616E63653A2000EA6A320EE96EEF5020
:100150000DE0060E016E006A002EFED7012EFBD7C1
:100160007B0E006E002EFED7EF2EF3D71200385014
:100170000F0B006EF00E83140010836E0000838C52
:10018000020E006E002EFED700D00000839C1200ED
:100190000F0E956E838A0000838C000083500F0B36
:1001A000386E839C0000838C00D000D00000835008
:1001B0000F0B376E839C000E956E3838006EF00E74
:1001C000001600503710016EE8EF00F08398E0D77A
:1001D00001C037F001BEFBD735A0839835B08388C6
:1001E0000000839A0000839C3638376E0F0E371656
:1001F00037C038F0BCDF36500F0B376E386EB7DFC4
:100200001200000E956E8398839A839C0F0E326EB7
:100210009BDF010E2B6E2B50030808E3030E386E94
:10022000A6DF050E326E90DF2B2AF5D7020E386E50
:100230009EDF2B6A2B5003080EE3036A2B50F2CF8C
:100240002CF0F29E28DF2CBEF28E2C6E356A366EB4
:10025000BDDF2B2AEFD728EF03F0010E335CFC0F34
:100260000EE2040F47EF01F0800E346E08D0C00E8E
:10027000346E05D0940E346E02D0D40E346E010E5E
:10028000325C3426356A34C036F0A0DF1200F2CF7B
:100290000DF0F29EE824F76AF736B30FF66E020E01
:1002A000F7220A00F550FA6E0800F5500DBEF28EE6
:1002B000F96E68026E0274027A0231500C0A05E08F
:1002C000060A0DE0020A12E016D0356A010E366EFB
:1002D0007DDF010E166E020E326E36DF11D0162A49
:1002E000010E326E16C033F0B8DF0AD0356A100E38
:1002F000366E6CDF05D0010E356E31C036F066DF2C
:1003000012000900F5520CE0F6CF2BF0F7CF2CF0DD
:10031000F5CF31F0D2DF2BC0F6FF2CC0F7FFF1D7BD
:100320001200020E2B6EFA0E326E0EDF2B2EFBD752
:100330000C0E316EC2DF010E326E336E8EDF0C0E8C
:10034000F66E010EF76EDDDF010E326E030E336EB8
:1003500084DF220EF66E010EF76ED3DF040E2B6ED5
:10036000FA0E326EF1DE2B2EFBD70C0E316EA5DFAE
:1003700029EF03F094908B80100E006E002EFED7B4
:10038000000094908B902CEF03F0016A026A006ADF
:10039000036A315002E1305018E0100E326ED890EE
:1003A0002E362F36003603363150035C02E13050D2
:1003B000005C07E33050005ED8A003063150035EB6
:1003C000D88001360236322EEAD71200EACF33F057
:1003D000E9CF32F02CAE08D0328E32A8322A2B1E52
:1003E0002C1E2B2AD8B42C2A2C38F0092E6E2E263F
:1003F000E20F2F6E320F316E2C500F0B2F262F264F
:100400003126E90F306E302630262B380F0B302680
:10041000312630363136311E31362B500F0B312616
:100420002E36070E2D6E0A0E30063126FDE32F06FE
:100430003026FDE32E062F26FDE32D062E26FDE3B6
:10044000EA6A2D0EE96E070E3214329CE906321468
:1004500007E132B8E92A32B803D0200E006E1CD072
:10046000E926310EE95CD8B4328CEF50006E08E119
:1004700032BC06D032B814D032B602D0200E0BD027
:1004800032AE06D02D0E006EED50329C329E04D05E
:1004900032863298300E002600509EA8FED7AD6EF0
:1004A000EE5032ACDED750EF03F03250016A315CCF
:1004B00003E231C000F00CD0006A080E336E313612
:1004C00000363250005CD8B0006E0136332EF7D7BC
:1004D0001200200E2CA8300E2D6E2BC000F02BAE7B
:1004E00008D0001E002A00C02BF02D0E2D6E2C8E81
:1004F0002C8001502BC031F0640E326ED6DF00C06C
:100500002BF0300E01242E6E2BC031F00A0E326E0D
:10051000CCDF300E0024306E300E01242F6E2DC043
:1005200000F0300E2E5C04E02C822CBE2C8412D005
:100530002DC02EF0200E2D6E300E2F5C04E02C808E
:100540002CBE2C8207D0D8A42C8004E12EC02FF022
:10055000200E2E6E2CB405D02CB206D02CB007D0B5
:1005600009D02DC031F0A9DE2EC031F0A6DE2FC09B
:1005700031F0A3DE30C031F0A0DE12002D6A2C5223
:1005800006E12B50090803E32BC02DF02FD02CC01F
:100590001DF02BC01CF01DC02FF01CC02EF0316AC6
:1005A0000A0E306EF2DE00C01CF003C01DF02CC03D
:1005B0001FF02BC01EF01FC02FF01EC02EF0316A9E
:1005C0000A0E306EE2DE02C01FF001C01EF01E34C3
:1005D000026E1F34036E02360336023603360236CD
:1005E0000336F00E021602501C242D6E036A2DC035
:1005F00001F003C002F025EF04F0F86AD09E078EE8
:100600000080176A810EAF6EA60EAC6E900EAB6EB8
:100610002290276AC180C182C184C196070EB46E40
:10062000D26AC66AD190850ECD6E070EB46E955013
:10063000956E9650966E100E006E002EFED700003E
:10064000B450A19CB56AD36A9D8AC00EF212D9D566
:1006500068D6196A186A8ED6948282A2FDD7CF6AAC
:10066000CE6A948282B2FDD7CE50186ECFCF19F0E9
:1006700019C02FF018C02EF0010E316E1D0E306E15
:1006800084DE02C01BF001C01AF0200E9EA8FED727
:10069000AD6E100EE96E1BC02CF01AC02BF096D672
:1006A0000A0E9EA8FED7AD6E22A015D0300E245C97
:1006B000286E300E255C296E300E265C2A6E28507E
:1006C000640DF3CF2BF029500A0DF3502B242A246C
:1006D000216A206E229021C02FF020C02EF0316AB6
:1006E000640E306E52DE01C028F02850640DF350C5
:1006F000205C2B6E000E21582C6E2F6E2BC02EF01E
:10070000316A0A0E306E41DE01C029F02850640DB6
:10071000F350205C2B6E000E215829500A0DF35027
:100720002B5C2A6E030E326E010E336E96DD320E96
:10073000F66E010EF76EE5DD28C02BF0180E2C6E5C
:10074000C8DE29C02BF0180E2C6EC3DE2AC02BF099
:10075000180E2C6EBEDE1BC02FF01AC02EF0316AB0
:10076000640E306E12DE01C028F02850640DF35084
:100770001A5C2B6E000E1B582C6E2F6E2BC02EF0A9
:10078000316A0A0E306E01DE01C029F02850640D76
:10079000F3501A5C2B6E000E1B5829500A0DF350B3
:1007A0002B5C2A6E030E326E336E57DD3C0EF66EF6
:1007B000010EF76EA6DD28C02BF0180E2C6E89DE18
:1007C00029C02BF0180E2C6E84DE2AC02BF0180ED8
:1007D0002C6E7FDE1B50215C11E303E120501A5C7C
:1007E0000DE2310E9EA8FED7AD6E0A0E9EA8FED772
:1007F000AD6E96928D8296908D900CD0320E9EA802
:10080000FED7AD6E0A0E9EA8FED7AD6E96908D8077
:1008100096928D921B5203E11A5063080FE21BC09F
:100820002FF01AC02EF0316A0A0E306EAEDD02C013
:100830001BF001C01AF096948D8402D096948D948A
:100840001BC02CF01AC02BF099D6936A01C08AFF06
:10085000020E2B6EFA0E326E77DC2B2EFBD7F9D6FA
:02086000030093
:020000040030CA
:0E00000000220C0E000081000FC00FE00F4028
:00000001FF
;PIC18F458
;CRC=0842  CREATED="06-mai-20 17:54"
