:04000000C3EF02F058
:08000800076ED8CF08F0E0CF2D
:1000100009F00001E9CF0FF0EACF0AF0E1CF0BF0D1
:10002000E2CF0CF0D9CF0DF0DACF0EF0F3CF15F010
:10003000F4CF16F0FACF17F0F5CF18F0F6CF19F08D
:10004000F7CF1AF000C011F001C012F002C013F097
:1000500003C014F09DAA30EF00F09EBA61EF00F0EB
:1000600011C000F012C001F013C002F014C003F080
:100070000FC0E9FF0AC0EAFF0A8E0BC0E1FF0CC007
:10008000E2FF0DC0D9FF0EC0DAFF15C0F3FF16C0A6
:10009000F4FF17C0FAFF18C0F5FF19C0F6FF1AC029
:1000A000F7FF075009C0E0FF08C0D8FF1000F76A4B
:1000B000BE0FF66E000EF7220900F5501200280C54
:1000C0000106036A2A50260FE96E000E0320EA6E2D
:1000D0009EAAFED7AECFEFFF2650210808E105B05B
:1000E00006D02A2A2A50030802E22A6A05809E9A2C
:1000F00030EF00F02050726F6A657420456C6563C4
:1001000074726F6E69717565203230323020000074
:1001100047726F757065203200004C696D697465B7
:10012000203A2000EA6A370EE96EEF500DE0060E25
:10013000016E006A002EFED7012EFBD77B0E006EEB
:10014000002EFED7EF2EF3D712003D38F00B006ED5
:100150000F0E06140010066E00000680030E006EDF
:10016000002EFED706901200F00E936E068400005B
:100170000680000006380F0B3D6E069000000680DA
:1001800000D000D0000006380F0B3C6E0690000E29
:10019000936E3D38006EF00E001600503C10016E5C
:1001A000D4EF00F00692E0D701C03CF001BEFBD7CF
:1001B00006923AB0068200000694000006903B3892
:1001C0003C6E0F0E3C163CC03DF0BFDF3B500F0BAA
:1001D0003C6E3D6EBADF1200000E936E06920694DE
:1001E00006900F0E376E9EDF010E306E3050030802
:1001F00008E3030E3D6EA9DF050E376E93DF302A4C
:10020000F5D7020E3D6EA1DF306A3050030809E3D6
:10021000036A30504CDF316E3A6A3B6EC3DF302ADE
:10022000F4D7F1EF02F0010E385CFC0F0EE2040F80
:100230002DEF01F0800E396E08D0C00E396E05D05A
:10024000940E396E02D0D40E396E010E375C392609
:100250003A6A39C03BF0A6DF1200E824F76AF736A5
:10026000750FF66E020EF7220A00F550FA6E0800BE
:10027000F550F96E34023A024002460236500C0A3A
:1002800005E0060A0DE0020A12E016D03A6A010EF5
:100290003B6E88DF010E046E020E376E43DF11D015
:1002A000042A010E376E04C038F0BDDF0AD03A6A66
:1002B000100E3B6E77DF05D0010E3A6E36C03BF074
:1002C00071DF12000900F5520CE0F6CF30F0F7CFE5
:1002D00031F0F5CF36F0D2DF30C0F6FF31C0F7FF96
:1002E000F1D712008B80100E006E002EFED700009A
:1002F0008B9020EF03F0016A026A006A036A3650AD
:1003000002E1355018E0100E376ED890333634368F
:10031000003603363650035C02E13550005C07E3DB
:100320003550005ED8A003063650035ED8800136F3
:100330000236372EEAD7120031C034F030C033F025
:10034000366A640E356ED7DF02C003F002C002F0D9
:100350002FEF03F03750016A365C03E236C000F03D
:100360000CD0006A080E386E363600363750005C06
:10037000D8B0006E0136382EF7D71200200E31A803
:10038000300E326E30C000F030AE08D0001E002AB1
:1003900000C030F02D0E326E318E3180015030C0F1
:1003A00036F0640E376ED6DF00C030F0300E012418
:1003B000336E30C036F00A0E376ECCDF300E0024BC
:1003C000356E300E0124346E32C000F0300E335CD6
:1003D00004E0318231BE318412D032C033F0200EBD
:1003E000326E300E345C04E0318031BE318207D091
:1003F000D8A4318004E133C034F0200E336E31B420
:1004000005D031B206D031B007D009D032C036F0B5
:1004100035DF33C036F032DF34C036F02FDF35C081
:1004200036F02CDF1200326A315206E130500908F2
:1004300003E330C032F02FD031C021F030C020F0C3
:1004400021C034F020C033F0366A0A0E356E53DF17
:1004500000C020F003C021F031C023F030C022F0F2
:1004600023C034F022C033F0366A0A0E356E43DF03
:1004700002C023F001C022F02234026E2334036E46
:10048000023603360236033602360336F00E021603
:1004900002502024326E32C001F0026AC4EF03F031
:1004A000EACF38F0E9CF37F031AE08D0378E37A831
:1004B000372A301E311E302AD8B4312A3138F0099B
:1004C000336E3326E20F346E320F366E31500F0B1F
:1004D000342634263626E90F356E35263526303853
:1004E0000F0B3526362635363636361E3636305024
:1004F0000F0B36263336070E326E0A0E35063626B9
:10050000FDE334063526FDE333063426FDE33206EB
:100510003326FDE3EA6A320EE96E070E3714379C84
:10052000ED52371407E137B8EE5237B803D0200E3A
:10053000006E20D0E926000EEA22E950360803E1D9
:10054000EA5201E1378CEF50006E08E137BC06D06B
:1005500037B814D037B602D0200E0BD037AE06D045
:100560002D0E006EED50379C379E04D0378637989D
:10057000300E002600509EA8FED7AD6EEE5037AC70
:10058000DCD7CEEF03F0F86AD09E0A8E0080810E91
:10059000AF6EA60EAC6E900EAB6E05902A6A2F6AF7
:1005A0002E6AC180C182C184C196070EB46ED26A20
:1005B000420E946EC66AD190850ECD6E070EB46E53
:1005C0009550956E9650966E100E006E002EFED7CA
:1005D0000000B450A19CB56A9D8AC00EF212D36A85
:1005E000FBD5020E306EFA0E376E9CDD302EFBD737
:1005F0000C0E366E43DE010E376E386E14DEF40ECE
:10060000F66E000EF76E5EDE040E306EFA0E376E7A
:1006100089DD302EFBD7100EF66E010EF76E52DE1E
:10062000040E306EFA0E376E7DDD302EFBD70C0EC9
:10063000366E24DE1D6A1C6A256A640E246E52D64C
:1006400082A2FED7CF6ACE6A82B2FED7CE501C6E8F
:10065000CFCF1DF01DC031F01CC030F06DD602C0F0
:100660001FF001C01EF005A015D00590300E275CCC
:100670002B6E300E285C2C6E300E295C2D6E2B50AC
:10068000640DF3CF30F02C500A0DF35030242D249C
:10069000256A246E1FC034F01EC033F0366A640E23
:1006A000356E29DE01C02BF02B50640DF3501E5C1B
:1006B000306E000E1F58316E346E30C033F0366A23
:1006C0000A0E356E18DE01C02CF02B50640DF3506D
:1006D0001E5C306E000E1F582C500A0DF350305C1B
:1006E0002D6E010E376E386E9EDD1A0EF66E010EFF
:1006F000F76EE8DD2BC030F0180E316E3FDE2CC0F7
:1007000030F0180E316E3ADE2DC030F0180E316E1A
:1007100035DE1F50255C11E303E124501E5C0DE221
:10072000310E9EA8FED7AD6E0A0E9EA8FED7AD6E06
:1007300096928D8296908D900CD0320E9EA8FED708
:10074000AD6E0A0E9EA8FED7AD6E96908D809692E5
:100750008D921F5203E11E5063080FE21FC034F058
:100760001EC033F0366A0A0E356EC5DD02C01FF0BA
:1007700001C01EF096948D8402D096948D941FC073
:1007800031F01EC030F04FD6936A01C08AFF100EC0
:10079000E96E1FC031F01EC030F082D60A0E9EA84E
:1007A000FED7AD6E020E306EFA0E376EBBDC302E09
:0607B000FBD740D7030057
:020000040030CA
:0E00000000220C0E000081000FC00FE00F4028
:00000001FF
;PIC18F458
;CRC=2A68  CREATED="27-avr.-20 14:44"
