:100000008EEF00F08B80100E006E002EFED70000E9
:100010008B909FEF00F0016A026A006A036A125037
:1000200002E1115018E0100E136ED8900F36103602
:10003000003603361250035C02E11150005C07E306
:100040001150005ED8A003061250035ED88001361E
:100050000236132EEAD712000DC010F00CC00FF0BC
:10006000010E126E540E116ED6DF02C003F002C0F4
:1000700002F0AEEF00F00E6A0D5206E10C500908D6
:1000800003E30CC00EF02FD00DC009F00CC008F037
:1000900009C010F008C00FF0126A0A0E116EBBDF23
:1000A00000C008F003C009F00DC00BF00CC00AF04E
:1000B0000BC010F00AC00FF0126A0A0E116EABDF0F
:1000C00002C00BF001C00AF00A34026E0B34036E5A
:1000D000023603360236033602360336F00E0216B7
:1000E000025008240E6E036A0EC001F003C002F035
:1000F000CDEF00F0EA6A0D0EE96EEF500DE0060E4E
:10010000016E006A002EFED7012EFBD77B0E006E1B
:10011000002EFED7EF2EF3D7D5EF00F0F86AD09E71
:100120000080C180C182C184C196070EB46ED26ABC
:10013000020E946E850ECD6E056A046A63D782A2A4
:10014000FED7CF6ACE6A82B2FED7CE50046ECFCF32
:1001500005F005C00DF004C00CF07ED702C007F01A
:1001600001C006F0075203E1065063080FE207C022
:1001700010F006C00FF0126A0A0E116E4CDF02C0BA
:1001800007F001C006F096948D8402D096948D9469
:1001900007C00DF006C00CF06ED7936A01C08AFF4D
:1001A000020E0C6EFA0E0D6EA5D70C2EFBD7C4D71F
:0201B00003004A
:020000040030CA
:0E00000000220C0E000081000FC00FE00F4028
:00000001FF
;PIC18F458
;CRC=4030  CREATED="11-avr.-20 18:11"
