:1000000093EF00F08B80100E006E002EFED70000E4
:100010008B90ADEF00F0016A026A006A036A145027
:1000200002E1135018E0100E156ED89011361236FA
:10003000003603361450035C02E11350005C07E302
:100040001350005ED8A003061450035ED88001361A
:100050000236152EEAD712000FC012F00EC011F0B2
:10006000010E146E1D0E136ED6DF02C003F002C027
:1000700002F0BCEF00F09EA8FED7AD6ED2EF00F00C
:10008000106A0F5206E10E50090803E30EC010F08B
:100090002FD00FC009F00EC008F009C012F008C040
:1000A00011F0146A0A0E136EB6DF00C008F003C028
:1000B00009F00FC00BF00EC00AF00BC012F00AC01E
:1000C00011F0146A0A0E136EA6DF02C00BF001C015
:1000D0000AF00A34026E0B34036E0236033602361F
:1000E000033602360336F00E021602500824106E54
:1000F000036A10C001F003C002F0EDEF00F0EA6AFD
:100100000F0EE96EEF500DE0060E016E006A002E34
:10011000FED7012EFBD77B0E006E002EFED7EF2EF2
:10012000F3D7F5EF00F0F86AD09E0080400EAF6E76
:10013000A60EAC6E900EAB6EC180C182C184C1961A
:10014000070EB46ED26A420E946E850ECD6E056AAD
:10015000046A0D6A640E0C6E55D782A2FED7CF6A70
:10016000CE6A82B2FED7CE50046ECFCF05F005C066
:100170000FF004C00EF070D702C007F001C006F007
:1001800007500D5C09E303E10C50065C05E2969212
:100190008D8296908D9004D096908D8096928D92BF
:1001A000065069D7075203E1065063080FE207C003
:1001B00012F006C011F0146A0A0E136E2CDF02C092
:1001C00007F001C006F096948D8402D096948D9429
:1001D00007C00FF006C00EF053D7936A01C08AFF24
:1001E000020E0E6EFA0E0F6E8AD70E2EFBD7AFD709
:0201F00003000A
:020000040030CA
:0E00000000220C0E000081000FC00FE00F4028
:00000001FF
;PIC18F458
;CRC=8BE9  CREATED="24-avr.-20 09:18"
