:1000000064EF01F08B80100E006E002EFED7000012
:100010008B9077EF01F08E0E006E11C001F010C0D2
:1000200002F0036A015209E102C001F0026A080EFF
:10003000005E015202E1006A08D0D89001BE04D0EF
:10004000023601360006F9D7019E12008E0E006EB0
:100050000F50005E10C002F011C001F0028E00527D
:1000600009E0D890025202E1015204E0023201326A
:10007000002EF7D710AE05D0011E021E012AD8B4FB
:10008000022A12001050D8B4A5D01C6E1450D8B457
:10009000A1D01C5E05E37F0E1C26D8B09BD006D0F5
:1000A000810E1C5ED8A096D0D8B494D01CC000F0AD
:1000B000016A026A036A1B6A11C01AF01A8E12C022
:1000C00019F013C018F0190E1C6E1750185E0DE2CF
:1000D000010E195E0AE21A5E08E21B5E06E21B2AA6
:1000E0001A2A192A1750182628D01650195E12E21B
:1000F000010E1A5E0FE21B5E0DE21B2A1A2A165031
:1001000019261750182619E3192A17E11A2A15E19A
:100110001B2A13D0155080091A5E0EE2010E1B5ED9
:100120000BE21B2A155080091A2616501926E9E3FE
:100130001A2AE7E11B2AE5D703801C2E01D00BD039
:10014000D890183619361A361B36D8900336023630
:1001500001361D36BAD71DA006D0D8900132023222
:1001600003321D3202D0000635E01DBE1ED0D890ED
:10017000183619361A361B361750185E07E2010E6C
:10018000195E04E21A5E02E21B5E1AE31650195E63
:1001900005E2010E1A5E02E21B5E12E315508009B1
:1001A0001A5E03E2010E1B5E0BE3032A09E1022A39
:1001B00007E1012A05E1002A0DE001320232033293
:1001C00011C01CF015501C1A1CAE02D0018E06D0B6
:1001D000019E04D0006A016A026A036A0EEF01F010
:1001E0000EC012F00DC011F00CC010F00BC00FF0DB
:1001F0002DDF116A01C010F00EDF03C013F002C042
:1002000012F001C011F000C010F0AE0E176E470ED4
:10021000166E6B0E156E840E146E34D703C012F07A
:1002200002C011F001C010F000C00FF00FDF01504C
:1002300095EF01F00E50016A0D5C03E20DC000F075
:100240000CD0006A080E0F6E0D3600360E50005CA2
:10025000D8B0006E01360F2EF7D712000C6A0B5083
:10026000090803E30BC00CF017D00BC009F009C05C
:100270000DF00A0E0E6EDEDF00C009F00BC00AF0B2
:100280000AC00DF00A0E0E6ED5DF01C00AF00A504A
:10029000100DF35009240C6E0CC001F0A9EF01F011
:1002A000EA6A0C0EE96EEF500DE0060E016E006A70
:1002B000002EFED7012EFBD77B0E006E002EFED740
:1002C000EF2EF3D7B1EF01F0F86AD09E0080C18025
:1002D000C182C184C196070EB46ED26A020E946EBA
:1002E000850ECD6E076A066A056A046A8BD682A2FD
:1002F000FED7CF6ACE6A82B2FED7CE50CFCF03F000
:10030000106ECFCF11F087DE03C007F002C006F0F9
:1003100001C005F000C004F007C00EF006C00DF0EB
:1003200005C00CF004C00BF05BD701C008F008500A
:1003300063080AE208C00DF00A0E0E6E7BDF01C0F2
:1003400008F096948D8402D096948D9408C00BF09A
:1003500085D7936A01C08AFF020E0B6EC80E0C6E21
:0A0360009FD70B2EFBD7BED703007A
:020000040030CA
:0E00000000220C0E000081000FC00FE00F4028
:00000001FF
;PIC18F458
;CRC=C1DB  CREATED="11-avr.-20 15:20"
