:0400000079EF02F0A2
:08000800046ED8CF05F0E0CF33
:1000100006F00001E9CF0CF0EACF07F0E1CF08F0DD
:10002000E2CF09F0D9CF0AF0DACF0BF0F3CF12F01C
:10003000F4CF13F0FACF14F000C00EF001C00FF0AF
:1000400002C010F003C011F09DAA2AEF00F09EBA82
:100050004BEF00F00EC000F00FC001F010C002F036
:1000600011C003F00CC0E9FF07C0EAFF078E08C00B
:10007000E1FF09C0E2FF0AC0D9FF0BC0DAFF12C0DE
:10008000F3FF13C0F4FF14C0FAFF045006C0E0FFF2
:1000900005C0D8FF1000036A2650220FE96E000E3B
:1000A0000320EA6E9EAAFED7AECFEFFF22502108B2
:1000B00008E121B006D0262A2650030802E2266A6B
:1000C00021809E9A2AEF00F04C696D6965203A20E4
:1000D00000008B80100E006E002EFED700008B906B
:1000E000AAEF02F0016A026A006A036A305002E174
:1000F0002F5018E0100E316ED8902D362E36003667
:1001000003363050035C02E12F50005C07E32F50B0
:10011000005ED8A003063050035ED8800136023658
:10012000312EEAD712002BC02EF02AC02DF0306AF3
:10013000640E2F6ED7DF02C003F002C002F0B9EFE9
:1001400002F0F00E936E0684000006800000063870
:100150000F0B376E06900000068000D000D0000024
:1001600006380F0B366E0690000E936E3738006E11
:10017000F00E001600503610016ED2EF00F0373846
:10018000F00B006E0F0E06140010066E00000680C5
:10019000020E006E002EFED700D000000690120066
:1001A0000692CFD701C036F001BEFBD7069234B01D
:1001B000068200000694000006903538366E0F0E59
:1001C000361636C037F0DBDF35500F0B366E376E24
:1001D000D6DF1200010E325CFC0F0EE2040F04EFBA
:1001E00001F0800E336E08D0C00E336E05D0940E31
:1001F000336E02D0D40E336E010E315C3326346A76
:1002000033C035F0CDDF1200F2CF0DF0F29EE824BE
:10021000F76AF7362D0FF66E020EF7220A00F55038
:10022000FA6E0800F5500DBEF28EF96EE201E8019B
:10023000EE01F401EA6A310EE96EEF500DE0060EB0
:10024000016E006A002EFED7012EFBD77B0E006EDA
:10025000002EFED7EF2EF3D7120030500C0A05E027
:10026000060A0DE0020A12E016D0346A010E356E5D
:1002700097DF010E166E020E316EDCDF11D0162AEA
:10028000010E316E16C032F0A5DF0AD0346A100EAE
:10029000356E86DF05D0010E346E30C035F080DF5C
:1002A00012000900F5520CE0F6CF2AF0F7CF2BF040
:1002B000F5CF30F0D2DF2AC0F6FF2BC0F7FFF1D721
:1002C0003AEF03F03150016A305C03E230C000F0D5
:1002D0000CD0006A080E326E303600363150005CA9
:1002E000D8B0006E0136322EF7D71200200E2BA8A0
:1002F000300E2C6E2AC000F02AAE08D0001E002A54
:1003000000C02AF02D0E2C6E2B8E2B8001502AC09F
:1003100030F0640E316ED6DF00C02AF0300E0124BA
:100320002D6E2AC030F00A0E316ECCDF300E002464
:100330002F6E300E01242E6E2CC000F0300E2D5C7E
:1003400004E02B822BBE2B8412D02CC02DF0200E6B
:100350002C6E300E2E5C04E02B802BBE2B8207D03F
:10036000D8A42B8004E12DC02EF0200E2D6E2BB4CE
:1003700005D02BB206D02BB007D009D02CC030F05E
:100380006CDF2DC030F069DF2EC030F066DF2FC08B
:1003900030F063DF12002C6A2B5206E12A50090864
:1003A00003E32AC02CF02FD02BC01CF02AC01BF076
:1003B0001CC02EF01BC02DF0306A0A0E2F6E92DE8C
:1003C00000C01BF003C01CF02BC01EF02AC01DF0A3
:1003D0001EC02EF01DC02DF0306A0A0E2F6E82DE78
:1003E00002C01EF001C01DF01D34026E1E34036EEB
:1003F000023603360236033602360336F00E021694
:1004000002501B242C6E036A2CC001F003C002F0C2
:100410004EEF03F0EACF32F0E9CF31F02BAE08D047
:10042000318E31A8312A2A1E2B1E2A2AD8B42B2A13
:100430002B38F0092D6E2D26E20F2E6E320F306E06
:100440002B500F0B2E262E263026E90F2F6E2F262F
:100450002F262A380F0B2F2630262F363036301E07
:1004600030362A500F0B30262D36070E2C6E0A0E12
:100470002F063026FDE32E062F26FDE32D062E2621
:10048000FDE32C062D26FDE3EA6A2C0EE96E070E2D
:100490003114319CE906311407E131B8E92A31B849
:1004A00003D0200E006E1CD0E926300EE95CD8B4D3
:1004B000318CEF50006E08E131BC06D031B814D059
:1004C00031B602D0200E0BD031AE06D02D0E006E0C
:1004D000ED50319C319E04D031863198300E00268B
:1004E00000509EA8FED7AD6EEE5031ACDED758EF6F
:1004F00003F0F86AD09E078E0080810EAF6EA60EC4
:10050000AC6E900EAB6E2190266AC180C182C18410
:10051000C196070EB46ED26A420E946EC66AD1902E
:10052000850ECD6E070EB46E9550956E9650966EF4
:10053000100E006E002EFED70000B450A19CB56ACC
:100540009D8AC00EF212D36A186A176A206A640E76
:100550001F6EBFD582A2FED7CF6ACE6A82B2FED707
:10056000CE50176ECFCF18F018C02BF017C02AF05E
:10057000DAD502C01AF001C019F01A50205C11E35C
:1005800003E11F50195C0DE2310E9EA8FED7AD6E3F
:100590000A0E9EA8FED7AD6E96928D8296908D9093
:1005A0000CD0320E9EA8FED7AD6E0A0E9EA8FED7C6
:1005B000AD6E96908D8096928D921A5203E11950ED
:1005C00063080FE21AC02EF019C02DF0306A0A0E2F
:1005D0002F6E88DD02C01AF001C019F096948D8448
:1005E00002D096948D9421A015D02190300E235CDA
:1005F000276E300E245C286E300E255C296E275045
:10060000640DF3CF2AF028500A0DF3502A24292430
:10061000206A1F6E20C02EF01FC02DF0306A640EBD
:100620002F6E60DD01C027F02750640DF3501F5C72
:100630002A6E000E20582B6E2E6E2AC02DF0306AC6
:100640000A0E2F6E4FDD01C028F02750640DF350C5
:100650001F5C2A6E000E205828500A0DF3502A5CA9
:10066000296E010E316E326EB5DDC80EF66E000ECB
:10067000F76E17D627C02AF0180E2B6E37DE28C06B
:100680002AF0180E2B6E32DE29C02AF0180E2B6EBF
:100690002DDE1AC02BF019C02AF07DD6936A01C056
:1006A0008AFF100EE96E1AC02BF019C02AF0B2D6DC
:1006B0000A0E9EA8FED7AD6E020E2A6EFA0E316E9D
:0A06C000B9DD2A2EFBD740D7030056
:020000040030CA
:0E00000000220C0E000081000FC00FE00F4028
:00000001FF
;PIC18F458
;CRC=C7EB  CREATED="27-avr.-20 12:51"
