:1000000009EF04F08B80100E006E002EFED700006A
:100010008B901FEF04F0800ED8B2251A2A6A2B6A43
:1000200021C029F02550291A2050D8B4DCD0286EE0
:10003000006E2450D8B4E0D0285ED8B481D03DE31F
:1000400025C02EF02E8E26C02DF027C02CF02B6A56
:10005000D8902E322D322C322B32282EF8D729AEC2
:1000600003D02A80DDD02A9028902A88EA6A230EBD
:10007000E96EE9D02A9829BE0AD028A013D02E32E2
:100080002D322C322B32002AD8B4C5D00BD02EBE44
:100090000CD0D8902B362C362D362E360006D8B400
:1000A000BAD0F5D72A8C6BD02A9C21C029F021AE7A
:1000B00002D02E8EA9D02E9EA7D024C028F024C016
:1000C00000F02050285E21C02EF02E8E22C02DF090
:1000D00023C02CF02B6AD8902E322D322C322B32AA
:1000E000282EF8D729AE03D02A829AD02A922890B7
:1000F0002A8AEA6A270EE96EA6D02A9A29BE0AD071
:1001000028A013D02E322D322C322B32002AD8B414
:1001100082D00BD02EBE0CD0D8902B362C362D365C
:100120002E360006D8B477D0F5D72A8E28D02A9E4E
:1001300025C029F025AE02D02E8E66D02E9E64D02A
:1001400025C02EF02E8E26C02DF027C02CF029AE13
:1001500004D02E9E2A8464D02A942B6A2890EA6ABE
:10016000230EE96E70D029BE1CD021C029F028A032
:1001700006D02E322D322C322B32002A4CE02BAE00
:100180000BD02C2A09E12D2A07E12E2A05E12E3277
:100190002D322C32002A3FE02ABC86D72ABEC7D790
:1001A0001CD0800E2E1A2EAE04D03AD025C029F0D5
:1001B0000AD021C029F02E5206E12D5204E12C5222
:1001C00002E1006A21D02EBE08D0D8902B362C3602
:1001D0002D362E36002EF7D71ED029AE02D02E8E09
:1001E00013D02E9E11D024C000F025C02EF026C0C2
:1001F0002DF027C02CF008D020C000F021C02EF038
:1002000022C02DF023C02CF02EC001F02DC002F032
:100210002CC003F034D0006A016A026A036A2FD04E
:100220002B6A2C1E2D1E2E1E2B1E2B2A05E12C2A7E
:1002300003E12D2A01E12E2A2AB015D72AB256D77A
:100240002AB48AD7B3D7EF502C2605E32D2A03E131
:100250002E2AD8B42880ED52EF502D2603E32E2A03
:10026000D8B42880ED52EF50EFBE01D0800A2E2680
:10027000D8B028802AB8FED62ABA3FD774D7120041
:10028000EA6A0D0EE96EEF500DE0060E016E006A8F
:10029000002EFED7012EFBD77B0E006E002EFED760
:1002A000EF2EF3D712001C50D8B4A5D0286E2050E2
:1002B000D8B4A1D0285E05E37F0E2826D8B09BD005
:1002C00006D0810E285ED8A096D0D8B494D028C08D
:1002D00000F0016A026A036A276A1DC026F0268EB2
:1002E0001EC025F01FC024F0190E286E2350245E76
:1002F0000DE2010E255E0AE2265E08E2275E06E2B6
:10030000272A262A252A2350242628D02250255E53
:1003100012E2010E265E0FE2275E0DE2272A262A50
:10032000225025262350242619E3252A17E1262AC0
:1003300015E1272A13D021508009265E0EE2010E16
:10034000275E0BE2272A21508009262622502526E7
:10035000E9E3262AE7E1272AE5D70380282E01D002
:100360000BD0D8902436253626362736D89003363B
:10037000023601362936BAD729A006D0D8900132E4
:1003800002320332293202D0000635E029BE1ED0E7
:10039000D89024362536263627362350245E07E2A9
:1003A000010E255E04E2265E02E2275E1AE3225079
:1003B000255E05E2010E265E02E2275E12E3215071
:1003C0008009265E03E2010E275E0BE3032A09E1A2
:1003D000022A07E1012A05E1002A0DE0013202327A
:1003E00003321DC028F02150281A28AE02D0018EF9
:1003F00006D0019E04D0006A016A026A036A1200F4
:100400000FC01FF00EC01EF00DC01DF00CC01CF080
:10041000236A800E226E2B0E216E870E206E43DF24
:100420004DEF04F00E501EEF02F0EF520FE0EACF56
:100430000DF0E9CF0CF0EFCF0EF0F4D70DC0EAFFCE
:100440000CC0E9FFE92AD8B4EA2AEFD75AEF04F042
:100450001DC024F02150241A24AE05D0D894D89081
:100460001DBED8802FD01DC024F020C025F01C5008
:10047000255E06E024AE26D0D850010AD86E22D0E0
:1004800021C025F01D50255E06E024AE1BD0D850BB
:10049000010AD86E17D022C025F01E50255E06E056
:1004A00024AE10D0D850010AD86E0CD023C025F04D
:1004B0001F50255E06E024AE05D0D850010AD86E44
:1004C00001D0D89012001C50D8B471D0006E2050CA
:1004D000D8B46DD0002604E3810E002668E204D073
:1004E0007F0E005E64E363E01DC024F02150241AF7
:1004F0001D8E218E1F502302F4CF26F01E502202A3
:10050000F4CF03F0F3CF25F02302F3502626F45066
:100510002522000E03221F502202F3502626F450FB
:100520002522000E026A032202221D502302F350EC
:100530002526F4500322000E02221D502202F35001
:100540000326F4500222000E016A01221F502102EC
:10055000F3502526F4500322000E022201221E50E1
:100560002102F3500326F4500222000E01221D50F6
:100570002102F3500226F4500122002A01BE05D0C8
:1005800025360336023601360006000E25AE0AD0A7
:10059000032A02220122015005E1025003E1035027
:1005A00001E1002A24BE018E24AE019E04D0006A1F
:1005B000016A026A036A12001C50B6081C6E036AC4
:1005C0001DC020F01D8ED8901D321E321F32033206
:1005D0000232013200321C2EF6D720AE0BD0001EA4
:1005E000011E021E031E002AD8B4012AD8B4022A12
:1005F000D8B4032A85EF03F0D8B203D0EA6A280EF4
:10060000E96E006A016A026A036A286A296A2A6A2C
:100610002B6A27502610251024102CE0200E2C6E5B
:10062000D8902036213622362336283629362A36E7
:100630002B3627502B5C08E126502A5C05E125501B
:10064000295C02E12450285C0FE32450285E2550E9
:10065000D8A0253C295E2650D8A0263C2A5E2750EB
:10066000D8A0273C2B5ED8800036013602360336F0
:100670002C2ED6D728C0EFFF29C0ECFF2AC0ECFFF4
:100680002BC0ECFF9FEF03F0B60E006E036A026A08
:10069000016A205021102210231002E1006A0DD0BF
:1006A000D89001BE09D020362136223623360336B3
:1006B00002360136002EF4D7019EE5EF03F0136AEF
:1006C000126A116A106A07C01FF006C01EF005C04A
:1006D0001DF004C01CF0236A226A200E216E820ED7
:1006E000206EB6DE09E30FC013F00EC012F00DC08D
:1006F00011F00CC010F083D00FC01FF00EC01EF020
:100700000DC01DF00CC01CF057D703C017F002C07D
:1007100016F001C015F000C014F0D882EA6A1C0E71
:10072000E96E17C023F016C022F015C021F014C0E6
:1007300020F0276A266A256A0A0E246E5DD71FC03C
:1007400017F01EC016F01DC015F01CC014F00FC02D
:100750001BF00EC01AF00DC019F00CC018F01BC031
:100760001FF01AC01EF019C01DF018C01CF0236A3B
:10077000226A200E216E820E206E95DD03C01BF0D2
:1007800002C01AF001C019F000C018F01BC01FF021
:100790001AC01EF019C01DF018C01CF0236A226A8E
:1007A000216A830E206E8FDE03C01FF002C01EF090
:1007B00001C01DF000C01CF017C023F016C022F0CD
:1007C00015C021F014C020F05FD7D89203C023F0E9
:1007D00002C022F001C021F000C020F01FC027F0AD
:1007E0001EC026F01DC025F01CC024F014DC03C080
:1007F00013F002C012F001C011F000C010F010C0E0
:1008000000F011C001F012C002F013C003F08FEF2E
:1008100004F0F86AD09E0080C180C182C184C19674
:10082000070EB46ED26A020E946E076A066A056AF3
:10083000046A0B6A0A6A096A086A02EF00F082B267
:1008400001D0FDD782A220D0D8920BC023F00AC0DD
:1008500022F009C021F008C020F0276A266A256A24
:100860007F0E246E0BEC00F003C00BF002C00AF008
:1008700001C009F000C008F0040E0C6EFA0E0D6EF7
:10088000FFDC0C2EFBD7DED70BC00FF00AC00EF03A
:1008900009C00DF008C00CF0B3D503C007F002C0CA
:1008A00006F001C005F000C004F005C0EAFF04C076
:1008B000E9FFBBD507C01FF006C01EF005C01DF044
:1008C00004C01CF0236A226A200E216E820E206E64
:1008D000BFDD1AE307C01FF006C01EF005C01DF003
:1008E00004C01CF0236A226A200E216E820E206E44
:1008F000EADD03C007F002C006F001C005F000C049
:1009000004F096948D8402D096948D9407C00FF0D5
:1009100006C00EF005C00DF004C00CF0D0D6936AEE
:0E09200000C08AFF640E0D6EABDC7FD70300B3
:020000040030CA
:0E00000000220C0E000081000FC00FE00F4028
:00000001FF
;PIC18F458
;CRC=3770  CREATED="30-mars-20 11:25"
