:04000000B6EF02F065
:08000800046ED8CF05F0E0CF33
:1000100006F00001E9CF0CF0EACF07F0E1CF08F0DD
:10002000E2CF09F0D9CF0AF0DACF0BF0F3CF12F01C
:10003000F4CF13F0FACF14F000C00EF001C00FF0AF
:1000400002C010F003C011F09DAA2AEF00F09EBA82
:100050004BEF00F00EC000F00FC001F010C002F036
:1000600011C003F00CC0E9FF07C0EAFF078E08C00B
:10007000E1FF09C0E2FF0AC0D9FF0BC0DAFF12C0DE
:10008000F3FF13C0F4FF14C0FAFF045006C0E0FFF2
:1000900005C0D8FF1000036A2650220FE96E000E3B
:1000A0000320EA6E9EAAFED7AECFEFFF22502108B2
:1000B00008E121B006D0262A2650030802E2266A6B
:1000C00021809E9A2AEF00F02050726F6A6574209A
:1000D000456C656374726F6E69717565203230327C
:1000E0003020000047726F757065203200004C6947
:1000F0006D6965203A200000EA6A310EE96EEF5022
:100100000DE0060E016E006A002EFED7012EFBD711
:100110007B0E006E002EFED7EF2EF3D71200F00EEE
:10012000936E068400000680000006380F0B376EC1
:1001300006900000068000D000D0000006380F0BAB
:10014000366E0690000E936E3738006EF00E001675
:1001500000503610016EC0EF00F03738F00B006E23
:100160000F0E06140010066E00000680020E006ED0
:10017000002EFED700D00000069012000692CFD7C6
:1001800001C036F001BEFBD7069234B006820000F3
:100190000694000006903538366E0F0E361636C0BF
:1001A00037F0DBDF35500F0B366E376ED6DF1200BF
:1001B000010E325CFC0F0EE2040FF2EF00F0800E35
:1001C000336E08D0C00E336E05D0940E336E02D05D
:1001D000D40E336E010E315C3326346A33C035F0F1
:1001E000CDDF1200F2CF0DF0F29EE824F76AF73669
:1001F000090FF66E020EF7220A00F550FA6E08009B
:10020000F5500DBEF28EF96EBE01C401CA01D001D7
:1002100030500C0A05E0060A0DE0020A12E016D082
:10022000346A010E356EAADF010E166E020E316EB3
:1002300063DF11D0162A010E316E16C032F0B8DF1E
:100240000AD0346A100E356E99DF05D0010E346E77
:1002500030C035F093DF12000900F5520CE0F6CF04
:100260002AF0F7CF2BF0F5CF30F0D2DF2AC0F6FF1F
:100270002BC0F7FFF1D71200020E2A6EFA0E316E74
:100280003BDF2A2EFBD70C0E306EC2DF010E316E23
:10029000326E8EDFC80EF66E000EF76EDDDF040ED6
:1002A0002A6EFA0E316E28DF2A2EFBD7E40EF66E88
:1002B000000EF76ED1DF040E2A6EFA0E316E1CDFCF
:1002C0002A2EFBD70C0E306EA3DFE2EF02F08B80FC
:1002D000100E006E002EFED700008B90E8EF02F0AB
:1002E000016A026A006A036A305002E12F5018E086
:1002F000100E316ED8902D362E3600360336305023
:10030000035C02E12F50005C07E32F50005ED8A091
:1003100003063050035ED88001360236312EEAD70C
:1003200012002BC02EF02AC02DF0306A640E2F6E02
:10033000D7DF02C003F002C002F0F7EF02F0315045
:10034000016A305C03E230C000F00CD0006A080E95
:10035000326E303600363150005CD8B0006E013657
:10036000322EF7D71200200E2BA8300E2C6E2AC08A
:1003700000F02AAE08D0001E002A00C02AF02D0E80
:100380002C6E2B8E2B8001502AC030F0640E316E03
:10039000D6DF00C02AF0300E01242D6E2AC030F0C6
:1003A0000A0E316ECCDF300E00242F6E300E012489
:1003B0002E6E2CC000F0300E2D5C04E02B822BBE84
:1003C0002B8412D02CC02DF0200E2C6E300E2E5C03
:1003D00004E02B802BBE2B8207D0D8A42B8004E115
:1003E0002DC02EF0200E2D6E2BB405D02BB206D0D2
:1003F0002BB007D009D02CC030F00ADF2DC030F070
:1004000007DF2EC030F004DF2FC030F001DF120014
:100410002C6A2B5206E12A50090803E32AC02CF06B
:100420002FD02BC01CF02AC01BF01CC02EF01BC00C
:100430002DF0306A0A0E2F6E53DF00C01BF003C090
:100440001CF02BC01EF02AC01DF01EC02EF01DC0D7
:100450002DF0306A0A0E2F6E43DF02C01EF001C07D
:100460001DF01D34026E1E34036E02360336023652
:10047000033602360336F00E021602501B242C6E91
:10048000036A2CC001F003C002F08CEF03F0EACF46
:1004900032F0E9CF31F02BAE08D0318E31A8312ABD
:1004A0002A1E2B1E2A2AD8B42B2A2B38F0092D6E8F
:1004B0002D26E20F2E6E320F306E2B500F0B2E2694
:1004C0002E263026E90F2F6E2F262F262A380F0BC7
:1004D0002F2630262F363036301E30362A500F0B5E
:1004E00030262D36070E2C6E0A0E2F063026FDE321
:1004F0002E062F26FDE32D062E26FDE32C062D26A7
:10050000FDE3EA6A2C0EE96E070E3114319CE90610
:10051000311407E131B8E92A31B803D0200E006E5A
:100520001CD0E926300EE95CD8B4318CEF50006E57
:1005300008E131BC06D031B814D031B602D0200E5B
:100540000BD031AE06D02D0E006EED50319C319E99
:1005500004D031863198300E002600509EA8FED778
:10056000AD6EEE5031ACDED796EF03F0F86AD09E58
:10057000078E0080810EAF6EA60EAC6E900EAB6E35
:100580002190266AC180C182C184C196070EB46ED3
:10059000D26A420E946EC66AD190850ECD6E070E59
:1005A000B46E9550956E9650966E100E006E002E9D
:1005B000FED70000B450A19CB56A9D8AC00EF2120D
:1005C000D36A5AD6186A176A206A640E1F6E7FD6DD
:1005D00082A2FED7CF6ACE6A82B2FED7CE50176E05
:1005E000CFCF18F018C02BF017C02AF09AD602C04F
:1005F0001AF001C019F021A015D02190300E235C13
:10060000276E300E245C286E300E255C296E275034
:10061000640DF3CF2AF028500A0DF3502A24292420
:10062000206A1F6E1AC02EF019C02DF0306A640EB9
:100630002F6E56DE01C027F02750640DF350195C71
:100640002A6E000E1A582B6E2E6E2AC02DF0306ABC
:100650000A0E2F6E45DE01C028F02750640DF350BE
:10066000195C2A6E000E1A5828500A0DF3502A5CA5
:10067000296E010E316E326E9BDDEE0EF66E000EAF
:10068000F76EEADD27C02AF0180E2B6E6CDE28C04C
:100690002AF0180E2B6E67DE29C02AF0180E2B6E7A
:1006A00062DE1A50205C11E303E11F50195C0DE279
:1006B000310E9EA8FED7AD6E0A0E9EA8FED7AD6E77
:1006C00096928D8296908D900CD0320E9EA8FED779
:1006D000AD6E0A0E9EA8FED7AD6E96908D80969256
:1006E0008D921A5203E1195063080FE21AC02EF0DE
:1006F00019C02DF0306A0A0E2F6EF2DD02C01AF01A
:1007000001C019F096948D8402D096948D941AC0ED
:100710002BF019C02AF07CD6936A01C08AFF100E14
:10072000E96E1AC02BF019C02AF0B1D60A0E9EA8A5
:10073000FED7AD6E020E2A6EFA0E316EDDDC2A2E69
:06074000FBD740D70300C7
:020000040030CA
:0E00000000220C0E000081000FC00FE00F4028
:00000001FF
;PIC18F458
;CRC=AAC3  CREATED="27-avr.-20 13:54"
