:10000000ADEF01F08B80100E006E002EFED70000C9
:100010008B90BEEF01F08E0E006E0BC001F00AC097
:1000200002F0036A015209E102C001F0026A080EFF
:10003000005E015202E1006A08D0D89001BE04D0EF
:10004000023601360006F9D7019ECAEF01F01250C0
:10005000D8B4A5D01E6E1650D8B4A1D01E5E05E34C
:100060007F0E1E26D8B09BD006D0810E1E5ED8A073
:1000700096D0D8B494D01EC000F0016A026A036A18
:100080001D6A13C01CF01C8E14C01BF015C01AF0A2
:10009000190E1E6E19501A5E0DE2010E1B5E0AE269
:1000A0001C5E08E21D5E06E21D2A1C2A1B2A19504E
:1000B0001A2628D018501B5E12E2010E1C5E0FE2B9
:1000C0001D5E0DE21D2A1C2A18501B2619501A26E7
:1000D00019E31B2A17E11C2A15E11D2A13D017501A
:1000E00080091C5E0EE2010E1D5E0BE21D2A1750F8
:1000F00080091C2618501B26E9E31C2AE7E11D2A6B
:10010000E5D703801E2E01D00BD0D8901A361B36AF
:100110001C361D36D8900336023601361F36BAD744
:100120001FA006D0D8900132023203321F3202D013
:10013000000635E01FBE1ED0D8901A361B361C367E
:100140001D3619501A5E07E2010E1B5E04E21C5EAA
:1001500002E21D5E1AE318501B5E05E2010E1C5EF2
:1001600002E21D5E12E3175080091C5E03E2010EDD
:100170001D5E0BE3032A09E1022A07E1012A05E1DA
:10018000002A0DE001320232033213C01EF0175074
:100190001E1A1EAE02D0018E06D0019E04D0006A47
:1001A000016A026A036AE6EF00F011C015F010C0A0
:1001B00014F00FC013F00EC012F0AE0E196E470E01
:1001C000186E6B0E176E840E166E41D7DBEF01F0C2
:1001D0008E0E006E0A50005E0BC002F00CC001F0E3
:1001E000028E005209E0D890025202E1015204E06E
:1001F00002320132002EF7D70BAE05D0011E021ECF
:10020000012AD8B4022AECEF01F01250016A115C05
:1002100003E211C000F00CD0006A080E136E113614
:1002200000361250005CD8B0006E0136132EF7D79E
:100230001200D8B203D0EA6A1D0EE96E006A016AA4
:10024000026A036A1D6A1E6A1F6A206A1C501B101C
:100250001A1019102CE0200E216ED8901536163683
:10026000173618361D361E361F3620361C50205CB9
:1002700008E11B501F5C05E11A501E5C02E1195099
:100280001D5C0FE319501D5E1A50D8A01A3C1E5E6B
:100290001B50D8A01B3C1F5E1C50D8A01C3C205EED
:1002A000D8800036013602360336212ED6D71DC03F
:1002B000EFFF1EC0ECFF1FC0ECFF20C0ECFF7FEF84
:1002C00001F00B6A0450090803E30AC00BF02DD0BB
:1002D0000F6A0E6A0D6A0AC00CF0D882EA6A110E23
:1002E000E96E0FC018F00EC017F00DC016F00CC06C
:1002F00015F01C6A1B6A1A6A0A0E196E9AD714C086
:100300000FF013C00EF012C00DF011C00CF00AC0B7
:1003100010F010C011F00A0E126E77DF01C010F05D
:100320001050100DF3500C240B6E0BC001F000EFB9
:1003300002F0EA6A0B0EE96EEF500DE0060E016E58
:10034000006A002EFED7012EFBD77B0E006E002E1A
:10035000FED7EF2EF3D708EF02F0F86AD09E0080A8
:10036000046AC180C182C184C196070EB46ED26A8C
:10037000020E946E850ECD6E056A44D682A2FED71B
:10038000CF6ACE6A82B2FED7CE50056E0B6A05C028
:100390000AF041D603C00DF002C00CF001C00BF012
:1003A00000C00AF003C011F002C010F001C00FF04D
:1003B00000C00EF0FAD603C009F002C008F001C078
:1003C00007F000C006F009C00DF008C00CF007C02F
:1003D0000BF006C00AF0FCD601C004F0045063081C
:1003E0000AE204C011F00A0E126E0FDF01C004F021
:1003F00096948D8402D096948D9404C00AF061D7AF
:10040000936A01C08AFF020E0A6EC80E0B6E91D766
:080410000A2EFBD7B1D703004F
:020000040030CA
:0E00000000220C0E000081000FC00FE00F4028
:00000001FF
;PIC18F458
;CRC=0E0D  CREATED="03-avr.-20 08:53"
